:020000040000fa
:080000000001040000000000f3
:020000040000fa
:04000800f6020000fc
:020000040000fa
:04000c00f6020000f8
:020000040000fa
:04001000f6020000f4
:020000040000fa
:04001400f6020000f0
:020000040000fa
:04001800f6020000ec
:020000040000fa
:04001c00f6020000e8
:020000040000fa
:04002000f6020000e4
:020000040000fa
:04002400f6020000e0
:020000040000fa
:04002800f6020000dc
:020000040000fa
:04002c00f6020000d8
:020000040000fa
:04003000f6020000d4
:020000040000fa
:04003400f6020000d0
:020000040000fa
:04003800f6020000cc
:020000040000fa
:04003c00f6020000c8
:020000040000fa
:04004000f6020000c4
:020000040000fa
:04004400f6020000c0
:020000040000fa
:04004800f6020000bc
:020000040000fa
:04004c00f6020000b8
:020000040000fa
:04005000f6020000b4
:020000040000fa
:04005400f6020000b0
:020000040000fa
:04005800f6020000ac
:020000040000fa
:04005c00f6020000a8
:020000040000fa
:04006000e0020000ba
:020000040000fa
:04006400f6020000a0
:020000040000fa
:04006800f60200009c
:020000040000fa
:04006c00f602000098
:020000040000fa
:04007000f602000094
:020000040000fa
:04007400f602000090
:020000040000fa
:04007800f60200008c
:020000040000fa
:04007c00540200002a
:020000040000fa
:04008000c8010000b3
:020000040000fa
:04008400f602000080
:020000040000fa
:04008800f60200007c
:020000040000fa
:04008c00f602000078
:020000040000fa
:04009000f602000074
:020000040000fa
:04009400f602000070
:020000040000fa
:04009800f60200006c
:020000040000fa
:04009c00f602000068
:020000040000fa
:0400a000f602000064
:020000040000fa
:0400a400f602000060
:020000040000fa
:0400a800f60200005c
:020000040000fa
:0400ac00f602000058
:020000040000fa
:0400b000f602000054
:020000040000fa
:0400b400f602000050
:020000040000fa
:0400b800f60200004c
:020000040000fa
:0400bc00f602000048
:020000040000fa
:0400c000f602000044
:020000040000fa
:0400c400f602000040
:020000040000fa
:0400c800f60200003c
:020000040000fa
:0400cc00f602000038
:020000040000fa
:0400d000f602000034
:020000040000fa
:0400d400f602000030
:020000040000fa
:0400d800f60200002c
:020000040000fa
:04010800f6020000fb
:020000040000fa
:04010c00f6020000f7
:020000040000fa
:04011000f6020000f3
:020000040000fa
:04011400f6020000ef
:020000040000fa
:04011800f6020000eb
:020000040000fa
:04011c00f6020000e7
:020000040000fa
:04012000f6020000e3
:020000040000fa
:04012400f6020000df
:020000040000fa
:04012800f6020000db
:020000040000fa
:04012c00f6020000d7
:020000040000fa
:04013000f6020000d3
:020000040000fa
:04013400f6020000cf
:020000040000fa
:04013800f6020000cb
:020000040000fa
:04013c00f6020000c7
:020000040000fa
:04014000f6020000c3
:020000040000fa
:04014400f6020000bf
:020000040000fa
:04014800f6020000bb
:020000040000fa
:04014c00f6020000b7
:020000040000fa
:04015000f6020000b3
:020000040000fa
:04015400f6020000af
:020000040000fa
:04015800f6020000ab
:020000040000fa
:04015c00f6020000a7
:020000040000fa
:04016000f6020000a3
:020000040000fa
:04016400f60200009f
:020000040000fa
:04016800f60200009b
:020000040000fa
:04016c00f602000097
:020000040000fa
:04017000f602000093
:020000040000fa
:04017400f60200008f
:020000040000fa
:04017800f60200008b
:020000040000fa
:04017c00f602000087
:020000040000fa
:04018000f602000083
:020000040000fa
:04018400f60200007f
:020000040000fa
:04018800f60200007b
:020000040000fa
:04018c00f602000077
:020000040000fa
:04019000f602000073
:020000040000fa
:04019400f60200006f
:020000040000fa
:04019800f60200006b
:020000040000fa
:04019c00f602000067
:020000040000fa
:0401a000f602000063
:020000040000fa
:0401a400f60200005f
:020000040000fa
:0401a800f60200005b
:020000040000fa
:0401ac00f602000057
:020000040000fa
:0401b000f602000053
:020000040000fa
:0401b400f60200004f
:020000040000fa
:0401b800f60200004b
:020000040000fa
:0401bc00f602000047
:020000040000fa
:0401c000f602000043
:020000040000fa
:0401c400f60200003f
:020000040000fa
:0401c800f60200003b
:020000040000fa
:0401cc00f602000037
:020000040000fa
:0401d000f602000033
:020000040000fa
:0401d400f60200002f
:020000040000fa
:0401d800f60200002b
:020000040000fa
:10020000cfa120000e7f22000e0188000000000018
:10021000000020000000e000020032000001200089
:100220002002880014000700f20007000000e00030
:1002300003003a0080e120000100200002003700a6
:100240000000200001002000810f7000010032003a
:1002500014000700000020000000e000020032004f
:100260000000020000000000fa0d02000000000083
:100270000040da000000fe004440a9000000200019
:100280000000e0000300320000002000a001880010
:100290004440a800000006008a1f78008b1f7800e9
:1002a0000000060091018800800478000000eb0047
:1002b0001a003700e284440032a0b4009905ba0065
:1002c000e284440032a0b4009906ba00e2844400fb
:1002d00032a0b4000006eb00476fde00fd07b2005d
:1002e000636ce10003003a00ebff07000000eb0045
:1002f0000a003700606ce10004003a00005deb008a
:100300008b05e900fdff3e00040037006168e10055
:10031000010032000086eb000b00070019c7ba008d
:100320001905ba000e04e00003003a000a00e000dc
:10033000e0ff3a0000000600fe07b2009e018800c0
:100340008a047800f5ff3700395dba008b05e900b3
:100350000c003200295dba008b05e900080032006c
:100360000c00e00003003a00e284440032a0b40034
:10037000f5ff370019ddba008b05e900faff3a00f6
:100380008904e800e184440032a0b40000000600c3
:1003900000a0fe003400f800881f7800080020004c
:1003a000a80188004f0478000000fa0086c0a90068
:1003b000004080000000e0000c003400204080007d
:1003c0000000e80020408800504080000000e90064
:1003d00050408800504080000000e0000d003d00cb
:1003e00030002000504088000a0037002040800084
:1003f0000000e90020408800504080000000e80034
:100400005040880050408000e30f5000010034004d
:100410000a28ef0050408000e10f50000f0032002a
:10042000e10f500003003c000000e0000600320035
:1004300019003700e20f50000d003200e30f5000aa
:100440001000320014003700d602a900d622a800fe
:10045000d642a900d662a8000f003700d602a90034
:10046000d622a800d642a800d662a9000a0037000a
:10047000d602a800d622a900d642a800d662a900ba
:1004800005003700d602a800d622a900d642a9004e
:10049000d662a800000000000080fa003400f900d5
:1004a0000080fe000040060000a0fe003400f800be
:1004b000881f780008002000a80188004f047800f9
:1004c0000000fa0086a0a900104080000000e000b3
:1004d0000c003d00304080000000e9003040880002
:1004e000404080000000e90040408800404080001b
:1004f0000000e0000d003d0030002000404088007a
:100500000a003700304080000000e80030408800da
:10051000404080000000e8004040880040408000eb
:10052000e30f5000010034000828ef004040800035
:10053000e10f50000f003200e10f500003003c00bb
:100540000000e0000600320019003700e20f500002
:100550000d003200e30f500010003200140037008d
:10056000d682a900d6a2a800d6c2a900d6e2a800c9
:100570000f003700d682a900d6a2a800d6c2a800d4
:10058000d6e2a9000a003700d682a800d6a2a900a8
:10059000d6c2a800d6e2a90005003700d682a8007e
:1005a000d6a2a900d6c2a900d6e2a8000000000089
:1005b0000080fa003400f9000080fe0000400600d0
:1005c0003400f800881f780008002000a801880087
:1005d0004f0478000000fa0085c0a9001468ef00fd
:1005e0000080fa003400f900004006000040da0004
:1005f0000000fe0000000500889fbe008a9fbe002c
:100600008c1f7800970007009e00330003866c0063
:100610006450e1002e0032006420e100330032001b
:100620006150e1002f0032006120e1003100320012
:1006300085855500eb07b000090020000804200064
:10064000050037000804440089844c000a0031008a
:100650000603430087834b000001530081815b0048
:10066000f8ff33000203be000800a00008044400a5
:1006700089844c00f6ff3900c639dd008301730020
:1006800001003200130020008904d1000884d30047
:100690000998a300050032000800a7000300a0008d
:1006a0008904d1000884d3008b05e8008904d100b7
:1006b0000884d3000001eb000281d2002e00070065
:1006c00001f0a1000cf0a70001f0a00076003700b7
:1006d0006420e100780032000801be000200be0084
:1006e000f7ff37006120e100730032006000b800be
:1006f000f3ff37000000200001f82700f0ff37006b
:100700000001be00420007000470a70003f0a10032
:1007100003f8a30013003a006509b100100032008d
:10072000090035006928e1000200350001002800b9
:100730000000050000004000818048008502e900bb
:10074000fcff3a0000000600f88f4200050035006b
:100750008100d1000080d3008502e800fcff3a0050
:10076000000006008000eb00000005004f89de005d
:1007700082017800870037008100200061805500e9
:100780000b003d000b00200061fe2f000100e10086
:100790001d00340082817100610164008904d10070
:1007a0000884d3000000e800faff3a00710020003e
:1007b0006100640003007000020060000900320064
:1007c00061044400e0844c000988a5000500320063
:1007d0008b05e8006808e10002003a008904d100b6
:1007e0000884d300f20f20000258e10005003d000c
:1007f000c75ddd00f907b200898075000800780048
:10080000000006000bf827008b00780000000500b0
:10081000c70ade00f107b200f50fb200080032008f
:10082000e1cf4200020032000170a0002400050068
:10083000810f70000100320004080500440005002b
:10084000810f700002003a00140005008502e900e3
:100850000000400081c04800fcff3b000170a00088
:10086000240005000004be00e9ff07000003be00ed
:100870000405be000200be00e5ff0700844f7500be
:10088000000006000200be006450e10005003600d2
:100890006420e100020036000968a30001003a006c
:1008a0000800be000160a0004f0678004f05be00a2
:1008b0004f04be0000000600f0ff2f00f1ff2700ec
:1008c000f9ff3700889fbe008a9fbe008c1f78000a
:1008d000e4ff0700ebff330003866c006450e10087
:1008e000240032006420e100270032006150e10062
:1008f000220032006120e100210032008b8542009d
:10090000eb07b1000134b800003ab8000804420017
:1009100089844a00013ab8000030b800888040005d
:1009200009014a00040033000000400081804800b3
:10093000020149008b05e900c909dd00830170004f
:100940000100320013002000c814de004814dd004e
:100950004709de001200b200c808de0008847000fb
:1009600085ff070001f0a1000cf0a70001f0a00036
:10097000cdff37006120e100cfff32000801be004b
:100980000200be00f7ff37006150e100fcff3a00b3
:10099000c9ff3700881f7800030478000300e000d7
:1009a00007003d0060001000e080180060011900a1
:1009b000e081190002003b0001f02d000300370028
:1009c0000400070008f0a70001f0a0004f04780021
:1009d00000000600889fbe008a9fbe000082700053
:1009e0000402710004827100260032000004be007f
:1009f0000200be006011b8006b09200095022000c3
:100a00000182cf000a0039000541b1000082cf0009
:100a1000070039000541b1000982cf000400390008
:100a20000541b1000882cf00010039000541b10045
:100a300005425200120032000a003b008281710020
:100a4000610164008100d1000080d3008984d3005b
:100a50000884d3008b05e8000442e800f7ff3a0061
:100a6000070037000804440089844c000000480057
:100a7000818048008b05e9000442e900f9ff3a0053
:100a80003dff07004f05be004f04be0000000600fa
:020000040000fa
:100a90000400fa00004f78001147980022479800a0
:100aa000f60307002e4190009e4090001e40780003
:100ab00021040700f50307000080fa00000006008b
:100ac0000400fa002047980031479800eb03070024
:100ad000be4090002e409000f0030700004f7800c9
:100ae000ea0307001e4078000080fa0000000600bc
:100af0000a00fa004047980031079800024f98001a
:100b0000134f98000040eb00004f78000000eb000e
:100b1000100798003200370010c0b300004f780073
:100b2000ef0107001e4f60004e409000e9020700f1
:100b30001e4f60000e4890000074a000e502070000
:100b40001e4f6000040207001e4f60004e409000e0
:100b50000040e800df0207001e4f60000000eb00cd
:100b60001007980014003700be0090001e0090008f
:100b7000008040008c0207001e4f60001e4890005d
:100b80000080fb000000e900800078001e0090005b
:100b9000808f500003003a00540207001e4f60008f
:100ba00002003700220207001e4f60001e00900066
:100bb0000000e800100798001e4890008080fb00ad
:100bc0001e009000808f5000e7ff3e0000020700eb
:100bd0001e4078000004e00005003a008f01070085
:100be0001e4078000004e000cbff32000100370017
:100bf000000000001e4078000080fa00000006009f
:100c00000000fa009d030700f2c9b30001c2b3005f
:100c1000c0c3b300c803070002c5b30051c2b3008c
:100c2000c0c3b300c4030700f2ccb30001c2b300d9
:100c300040cdb300c003070002c2b30011c2b3002d
:100c400040cdb300bc0307000041eb0031c2b3004c
:100c500040cdb300b80307008c0307000080fa0002
:100c6000000006000200fa00000f7800830307006e
:100c700063c0b30082c2b3009e007800c0c3b3005b
:100c80009bff0700810307000080fa0000000600b8
:100c90000c00fa00300798004107980052079800ae
:100ca0007603070063c0b30082c2b3008e007800f1
:100cb000c0c3b3008eff0700740307001e409000fe
:100cc0000080fb00c800dd001e4078000080fb00b3
:100cd000808040003e009000010878003e40900077
:100ce0000080fb00c800dd002e4090000080fb006b
:100cf000808040004e009000010878005e40900027
:100d00000080fb00c800dd004e4090000080fb002a
:100d1000808040005e009000010878000080fa00aa
:100d2000000006000200fa00540307000e007800dd
:100d300023c0b30082c2b30080007800c0c3b300f8
:100d40006bff0700510307001e4090000000fb00ee
:100d5000c800dd001e4078000000fb00008040005d
:100d60000080fa00000006000200fa0043030700ba
:100d70000e00780023c0b300a2c2b3008000780048
:100d8000c0c3b3005aff0700400307001e40900095
:100d90000000fb00c800dd001e4078000000fb00e2
:100da000008040000080fa00000006000200fa0007
:100db000320307000e00780023c0b300c2c2b300a4
:100dc00080007800c0c3b30049ff07002f0307006d
:100dd0001e4090000000fb00c800dd001e407800af
:100de0000000fb00008040000080fa0000000600c8
:100df0000200fa00000f78002003070063c0b30070
:100e000082c2b3009e00780040cdb30038ff0700d7
:100e10001e0307000080fa00000006000c00fa0024
:100e20003007980041079800520798001303070005
:100e300063c0b30082c2b3008e00780040cdb3001f
:100e40002bff0700110307001e4090000080fb00ed
:100e5000c800dd001e4078000080fb00808040005c
:100e600060408000808050003e00900001087800c3
:100e70003e4090000080fb00c800dd002e40900046
:100e80000080fb0080804000704080008080500027
:100e90004e009000010878005e4090000080fb004a
:100ea000c800dd004e4090000080fb0080804000c4
:100eb00080408000808050005e0090000108780033
:100ec0000080fa00000006000200fa00eb020700b2
:100ed0000e00780023c0b30082c2b3008000780007
:100ee00040cdb30002ff0700e80207001e4090005b
:100ef0000000fb00c800dd001e4078000000fb0081
:100f00008080400060408000008050000080fa0037
:100f1000000006000200fa00d80207000e00780068
:100f200023c0b300a2c2b3008000780040cdb3005c
:100f3000effe0700d50207001e4090000000fb00f6
:100f4000c800dd001e4078000000fb0080804000eb
:100f500070408000008050000080fa000000060011
:100f60000200fa00c50207000e00780023c0b3009b
:100f7000c2c2b3008000780040cdb300dcfe0700a1
:100f8000c20207001e4090000000fb00c800dd0008
:100f90001e4078000000fb00808040008040800000
:100fa000008050000080fa00000006000000fa00f7
:100fb00061c2b30040cdb300c1fe07000080fa005b
:100fc000000006001000fa00700798000000eb0017
:100fd000400798000000eb00500798000000eb006d
:100fe000600798000000eb00000f78000000eb00a5
:100ff000000f78001e0037000e80e8007cff07001d
:10100000ce0090003e4090000080fb004801dd00d3
:101010002e4090000080fb00000041000080400056
:1010200040079800de0090005e4090000080fb00ca
:101030004801dd004e4090000080fb0000004100b0
:101040000080400050079800ee0090007e40900025
:101050000080fb004801dd006e4090000080fb0036
:101060000000410000804000600798001e0fe8006b
:101070007e0090009e007800808f5000deff3500db
:10108000ce0090007e009000000178001100090061
:101090008200d80060408800de0090007e00900052
:1010a00000017800110009008200d800704088001b
:1010b000ee0090007e009000000178001100090011
:1010c0008200d800804088000080fa0000000600fe
:1010d0000200fa00000f78001e007800cf80de00ca
:1010e000a2fd070092c22500f3c02300f5fd070012
:1010f0000080fa00000006000200fa00000f7800ed
:101100001e007800cf80de0098fd070072cf2c0013
:1011100023712300ebfd07000080fa0000000600a9
:101120000000fa0000000000301080006100600044
:101130000000e000fcff3a00301080006400600016
:101140000000e000f8ff3a00301080006800600006
:101150000000e000f4ff3a003010800070006000f2
:101160000000e000f0ff3a00411080000000240081
:10117000008060000000e000ebff3a000080fa0011
:10118000000006000400fa0060092000201088001a
:1011900007e2a90007e2a80085c0a90085a0a90070
:1011a000d1048000f08f2f0080806000005020006c
:1011b00001007000d00488008da0a90000712200f9
:1011c00001002000008fbe00040037000081eb000a
:1011d0008081eb001e0f41005e9749001e00be009b
:1011e000e00f5000e08f5800f8ff3a0010c0b30045
:1011f0000080fa00000006000000fa0007e2a900e3
:1012000085c0a90085a0a9008dc0a9008da0a90056
:1012100010c0b3000080fa00000006000400fa00cd
:101220006000b800008fbe0007e2a90085c0a900d9
:1012300085a0a9008da0a9000822ef00007122005e
:1012400001002000008fbe00040037000081eb0089
:101250008081eb001e0f41005e9749001e00be001a
:10126000e00f5000e08f5800f8ff3a00c5ff07007c
:101270000f0007000071220001002000008fbe0057
:10128000040037000081eb008081eb001e0f41005d
:101290005e9749001e00be00e00f5000e08f58002e
:1012a000f8ff3a0010c0b3000080fa00000006000a
:1012b0000000fa0085c0a9008dc0a80010c0b300ce
:1012c0000080fa00000006000000fa0085c0a900b6
:1012d0008dc0a90010c0b3000080fa000000060015
:1012e0000400fa0010c0b30014e8b70040108000fa
:1012f000700060000000e000140032000602a80048
:101300000071220001002000008fbe00090037009c
:1013100014c8bf000004e00002003a0010c0b3008f
:101320000b0037000081eb008081eb001e0f4100b5
:101330005e9749001e00be00e00f5000e08f58008d
:10134000f3ff3a000040eb00010037000040eb00e3
:101350000080fa00000006000400fa0060c0b3003c
:1013600014e8b70040108000680060000000e00052
:10137000140032000622a8000071220001002000a3
:10138000008fbe000900370014c8bf000004e00051
:1013900002003a0010c0b3000b0037000081eb00e0
:1013a0008081eb001e0f41005e9749001e00be00c9
:1013b000e00f5000e08f5800f3ff3a000040eb00d0
:1013c000010037000040eb000080fa00000006003a
:1013d0000400fa0050c0b30014e8b7000642a800a9
:1013e0000071220001002000008fbe0009003700bc
:1013f00014c8bf000004e00002003a0010c0b300af
:10140000090037000081eb008081eb001e0f4100d6
:101410005e9749001e00be00e00f5000e08f5800ac
:10142000f3ff3a000040eb000080fa0000000600e5
:101430000400fa0030c0b30014e8b7003010800098
:10144000610060000000e00010003a0030108000f1
:10145000640060000000e0000c003a0030108000e2
:10146000680060000000e00008003a0030108000d2
:10147000700060000000e00004003a0030108000be
:10148000620060000000e000020032000040eb005b
:101490001400370006a2a9000682a80000712200ed
:1014a00001002000008fbe000900370014c8bf00f3
:1014b0000004e00002003a0010c0b3000900370049
:1014c0000081eb008081eb001e0f41005e97490018
:1014d0001e00be00e00f5000e08f5800f3ff3a00fe
:1014e0000040eb000080fa00000006000400fa0053
:1014f00030c0b30014e8b700301080006100600015
:101500000000e00010003a0030108000640060002d
:101510000000e0000c003a0030108000680060001d
:101520000000e00008003a00301080007000600009
:101530000000e00004003a0030108000620060000b
:101540000000e000020032000040eb001400370011
:1015500006a2a8000682a800007122000100200057
:10156000008fbe000900370014c8bf000004e0006f
:1015700002003a0010c0b300090037000081eb0000
:101580008081eb001e0f41005e9749001e00be00e7
:10159000e00f5000e08f5800f3ff3a000040eb00ee
:1015a0000080fa00000006000800fa0030079800ea
:1015b0000071220001002000008fbe000040eb00ff
:1015c0004047980040c0b30014e8b7000071220003
:1015d00001002000008fbe001c003700301080008a
:1015e000610060000000e00014003a00301080004c
:1015f000640060000000e00010003a00301080003d
:10160000680060000000e0000c003a00301080002c
:10161000700060000000e00008003a004110800007
:1016200000002400008060000000e00003003a0099
:1016300010c0b30040479800080037000081eb005d
:101640008081eb001e0f41005e9749001e00be0026
:10165000e00f5000e08f5800e0ff3a004e4090004d
:101660000004e00002003a000040eb0017003700e1
:101670000662a800006a280011002000008fbe004a
:101680000d00370014c8bf000004e00006003a0057
:1016900000108000804078003e00900001487800f3
:1016a00010c0b300090037000081eb008081eb001f
:1016b0001e0f41005e9749001e00be00e00f500063
:1016c000e08f5800efff3a000040eb000080fa0086
:1016d000000006000600fa004047980020c0b30052
:1016e00014e8b7004e4090000000fb001010880086
:1016f0000071220001002000008fbe0009003700a9
:1017000014c8bf000004e00002003a0010c0b3009b
:10171000090037000081eb008081eb001e0f4100c3
:101720005e9749001e00be00e00f5000e08f580099
:10173000f3ff3a000040eb000080fa0000000600d2
:101740000000fa00770007000080fa0000000600a1
:101750000200fa00000f78001e0078000000e00090
:1017600006003a0021e1a900d602a900d622a9006c
:10177000d642a900d662a9001800370021e1a900cd
:101780009e007800014088002021ef0001098000c0
:101790000003200001007000000988001821ef00fc
:1017a0001e00780000f0a7000000ea00cf80de00f5
:1017b000eefb07000001be000000200011762400af
:1017c0008dfb0700cefb070000007800e0088800d2
:1017d00086c0a9008ec0a80021e1a8000080fa0000
:1017e000000006000200fa00000f78001e007800da
:1017f0000000e00006003a001fe1a900d682a9001f
:10180000d6a2a900d6c2a900d6e2a90018003700c6
:101810001fe1a9009e007800114088001e21ef0002
:10182000f10880000003200001007000f00888002b
:101830001421ef001e00780000f0a7000000ea006d
:10184000cf80de00c9fb07000001be0000002000c1
:101850001176240068fb0700a9fb07000000780050
:10186000d008880086a0a9008ea0a8001fe1a800cb
:101870000080fa00000006000000fa00204080000e
:101880000080fa00000006000200fa00000f780055
:101890001027fc009e007800214088000200fc0018
:1018a0000080fa00000006000000fa0030408000ce
:1018b0000080fa00000006000200fa00000f780025
:1018c0001027fc009e007800314088000200fc00d8
:1018d0000080fa00000006000200fa005f00070026
:1018e0004efe070065000700f1c0b300c0c3b3009f
:1018f0006a000700004f78006400070000c4b300ce
:101900009e40780080cf500003003a0010c0b30022
:1019100012e8b700010037001268ef000080fa00fb
:10192000000006000000fa00c4c2a900c4e2a90039
:10193000c522a900c582a900c542a900c5a2a90067
:10194000c5c2a900c5e2a900c0c2a900c0e2a900a1
:10195000c122a900c182a900c142a900c1a2a90057
:10196000c1c2a900c1e2a900d022a900cc22a900cd
:10197000d042a900cc42a900e2e2a900e302a900fa
:10198000e802a900e822a900dee2a900df02a9001e
:10199000e402a900e422a900e202a900de02a900f3
:1019a000d602a900d622a900d642a900d662a90073
:1019b000d682a900d6a2a900d6c2a900d6e2a90063
:1019c000d202a900d222a900d242a900d262a90063
:1019d000d282a900d2a2a900d2c2a900d2e2a90053
:1019e000d1a2a900cda2a900e842a900e862a900fd
:1019f000e442a900e462a900de22a800dec2a80039
:101a0000e4c2a800e4e2a800e502a800e522a800dc
:101a1000d302a800d322a800d342a800d362a80012
:101a2000d382a800d3a2a800d3c2a800d3e2a80002
:101a3000a9ff070012c8bf000004e0000100320047
:101a40006ffc07000080fa00000006000000fa00aa
:101a500012c8bf000080fa00000006000000fa0073
:101a6000c8fd07000080fa00000006000000fa0030
:101a7000e1fd07000080fa00000006000000fa0007
:101a80000bfe07000080fa00000006000000fa00cc
:101a90000dfe07000080fa00000006000400fa00b6
:101aa00020479800314798000040eb00004f780035
:101ab0001900370010c0b300004f780008fe07007f
:101ac0001e4f60002e40900002ff07001e4f600076
:101ad0003e409000fffe07001e4f60001efe070004
:101ae0001e4f60002e4090000040e800f9fe070005
:101af0001e4f60000e00e800abfe07001e4f6000a6
:101b00007afe070032fe07001e4078000004e00065
:101b100005003a00c1fd07001e4078000004e00007
:101b2000e4ff320001003700000000001e4090007a
:101b30000080fa00000006000600fa002047980026
:101b400031479800424798000040eb00004f780072
:101b50001300370010c0b300004f7800e0fd07000d
:101b60001e4f60002e409000dafe07001e4f6000fe
:101b70003e409000d7fe07001e4f60004e40900090
:101b8000d4fe07001e4f600011fe07001e4f6000cc
:101b90001e4078000004e00005003a009ffd0700a9
:101ba0001e4078000004e000eaff32000100370028
:101bb000000000001e4078000080fa0000000600cf
:101bc0000400fa00100798000000eb00000f7800f6
:101bd00002003700000000001e0fe8001e00900009
:101be0009e007800808f5000faff35000080fa00d8
:101bf000000006000000fa00d1fe0700800c200063
:101c0000d3fe0700800c2000f6fe0700003e2900ee
:101c1000ebff07000000eb00cdfe07000000eb002b
:101c2000f0fe07000000eb000080fa000000060054
:020000040000fa
:101c3000000800000c000000000000001208000076
:101c400002000000000000000c0800000600000078
:101c50000000000016080000060000000000000060
:101c60001408000002000000000000000000000056
:020000040000fa
:0200000401f009
:04000000e0b9000063
:020000040000fa
:0200000401f009
:04000400ff7f00007a
:020000040000fa
:0200000401f009
:040008007fff000076
:020000040000fa
:0200000401f009
:04001400ffff0000ea
:00000001FF
