:020000040000fa
:080000000001040000000000f3
:020000040000fa
:04000800de01000015
:020000040000fa
:04000c00de01000011
:020000040000fa
:04001000de0100000d
:020000040000fa
:04001400de01000009
:020000040000fa
:04001800de01000005
:020000040000fa
:04001c00de01000001
:020000040000fa
:04002000de010000fd
:020000040000fa
:04002400de010000f9
:020000040000fa
:04002800de010000f5
:020000040000fa
:04002c00de010000f1
:020000040000fa
:04003000de010000ed
:020000040000fa
:04003400de010000e9
:020000040000fa
:04003800de010000e5
:020000040000fa
:04003c00de010000e1
:020000040000fa
:04004000de010000dd
:020000040000fa
:04004400de010000d9
:020000040000fa
:04004800de010000d5
:020000040000fa
:04004c00de010000d1
:020000040000fa
:04005000de010000cd
:020000040000fa
:04005400de010000c9
:020000040000fa
:04005800de010000c5
:020000040000fa
:04005c00de010000c1
:020000040000fa
:04006000c8010000d3
:020000040000fa
:04006400de010000b9
:020000040000fa
:04006800de010000b5
:020000040000fa
:04006c00de010000b1
:020000040000fa
:04007000de010000ad
:020000040000fa
:04007400de010000a9
:020000040000fa
:04007800de010000a5
:020000040000fa
:04007c00de010000a1
:020000040000fa
:04008000de0100009d
:020000040000fa
:04008400de01000099
:020000040000fa
:04008800de01000095
:020000040000fa
:04008c00de01000091
:020000040000fa
:04009000de0100008d
:020000040000fa
:04009400de01000089
:020000040000fa
:04009800de01000085
:020000040000fa
:04009c00de01000081
:020000040000fa
:0400a000de0100007d
:020000040000fa
:0400a400de01000079
:020000040000fa
:0400a800de01000075
:020000040000fa
:0400ac00de01000071
:020000040000fa
:0400b000de0100006d
:020000040000fa
:0400b400de01000069
:020000040000fa
:0400b800de01000065
:020000040000fa
:0400bc00de01000061
:020000040000fa
:0400c000de0100005d
:020000040000fa
:0400c400de01000059
:020000040000fa
:0400c800de01000055
:020000040000fa
:0400cc00de01000051
:020000040000fa
:0400d000de0100004d
:020000040000fa
:0400d400de01000049
:020000040000fa
:0400d800de01000045
:020000040000fa
:04010800de01000014
:020000040000fa
:04010c00de01000010
:020000040000fa
:04011000de0100000c
:020000040000fa
:04011400de01000008
:020000040000fa
:04011800de01000004
:020000040000fa
:04011c00de01000000
:020000040000fa
:04012000de010000fc
:020000040000fa
:04012400de010000f8
:020000040000fa
:04012800de010000f4
:020000040000fa
:04012c00de010000f0
:020000040000fa
:04013000de010000ec
:020000040000fa
:04013400de010000e8
:020000040000fa
:04013800de010000e4
:020000040000fa
:04013c00de010000e0
:020000040000fa
:04014000de010000dc
:020000040000fa
:04014400de010000d8
:020000040000fa
:04014800de010000d4
:020000040000fa
:04014c00de010000d0
:020000040000fa
:04015000de010000cc
:020000040000fa
:04015400de010000c8
:020000040000fa
:04015800de010000c4
:020000040000fa
:04015c00de010000c0
:020000040000fa
:04016000de010000bc
:020000040000fa
:04016400de010000b8
:020000040000fa
:04016800de010000b4
:020000040000fa
:04016c00de010000b0
:020000040000fa
:04017000de010000ac
:020000040000fa
:04017400de010000a8
:020000040000fa
:04017800de010000a4
:020000040000fa
:04017c00de010000a0
:020000040000fa
:04018000de0100009c
:020000040000fa
:04018400de01000098
:020000040000fa
:04018800de01000094
:020000040000fa
:04018c00de01000090
:020000040000fa
:04019000de0100008c
:020000040000fa
:04019400de01000088
:020000040000fa
:04019800de01000084
:020000040000fa
:04019c00de01000080
:020000040000fa
:0401a000de0100007c
:020000040000fa
:0401a400de01000078
:020000040000fa
:0401a800de01000074
:020000040000fa
:0401ac00de01000070
:020000040000fa
:0401b000de0100006c
:020000040000fa
:0401b400de01000068
:020000040000fa
:0401b800de01000064
:020000040000fa
:0401bc00de01000060
:020000040000fa
:0401c000de0100005c
:020000040000fa
:0401c400de01000058
:020000040000fa
:0401c800de01000054
:020000040000fa
:0401cc00de01000050
:020000040000fa
:0401d000de0100004c
:020000040000fa
:0401d400de01000048
:020000040000fa
:0401d800de01000044
:020000040000fa
:100200000fa120000e7f22000e01880000000000d8
:10021000000020000000e000020032000001200089
:100220002002880014000700660007000000e000bc
:1002300003003a0000b9200001002000020037004e
:100240000000200001002000810f7000010032003a
:1002500014000700000020000000e000020032004f
:100260000000020000000000680b02000000000017
:100270000040da000000fe004440a9000000200019
:100280000000e0000300320000002000a001880010
:100290004440a800000006008a1f78008b1f7800e9
:1002a0000000060091018800800478000000eb0047
:1002b0001a003700e284440032a0b4009905ba0065
:1002c000e284440032a0b4009906ba00e2844400fb
:1002d00032a0b4000006eb00476fde00fd07b2005d
:1002e000636ce10003003a00ebff07000000eb0045
:1002f0000a003700606ce10004003a00005deb008a
:100300008b05e900fdff3e00040037006168e10055
:10031000010032000086eb000b00070019c7ba008d
:100320001905ba000e04e00003003a000a00e000dc
:10033000e0ff3a0000000600fe07b2009e018800c0
:100340008a047800f5ff3700395dba008b05e900b3
:100350000c003200295dba008b05e900080032006c
:100360000c00e00003003a00e284440032a0b40034
:10037000f5ff370019ddba008b05e900faff3a00f6
:100380008904e800e184440032a0b40000000600c3
:100390003400f800881f780008002000a8018800b9
:1003a0004f0478000000fa0085c0a9000868ef003b
:1003b0000080fa003400f900004006000040da0036
:1003c0000000fe00000005004f89de008201780079
:1003d00034003700889fbe008a9fbe008c1f7800c3
:1003e000950007009c00330003866c006450e10018
:1003f000240032006420e100270032006150e10057
:10040000220032006120e100210032008b85420091
:10041000eb07b1000134b800003ab800080442000c
:1004200089844a00013ab8000030b8008880400052
:1004300009014a00040033000000400081804800a8
:10044000020149008b05e900c909dd008301700044
:100450000100320013002000c814de004814dd0043
:100460004709de001200b200c808de0008847000f0
:100470004b00070001f0a1000cf0a70001f0a00064
:100480007e0037006120e100800032000801be00dc
:100490000200be00f7ff37006150e100fcff3a00a8
:1004a0007a003700881f7800030478000300e0001a
:1004b00007003d0060001000e08018006001190096
:1004c000e081190002003b0001f02d00030037001d
:1004d0000400070008f0a70001f0a0004f04780016
:1004e00000000600889fbe008a9fbe000082700048
:1004f0000402710004827100260032000004be0074
:100500000200be006011b8006b09200095022000b7
:100510000182cf000a0039000541b1000082cf00fe
:10052000070039000541b1000982cf0004003900fd
:100530000541b1000882cf00010039000541b1003a
:1005400005425200120032000a003b008281710015
:10055000610164008100d1000080d3008984d30050
:100560000884d3008b05e8000442e800f7ff3a0056
:10057000070037000804440089844c00000048004c
:10058000818048008b05e9000442e900f9ff3a0048
:10059000030007004f05be004f04be000000060028
:1005a00081002000618055000b003d000b00200001
:1005b00061fe2f000100e1001d0034008281710006
:1005c000610164008904d1000884d3000000e800c0
:1005d000faff3a007100200061006400030070001f
:1005e000020060000900320061044400e0844c0015
:1005f0000988a500050032008b05e8006808e100c5
:1006000002003a008904d1000884d300f20f2000d0
:100610000258e10005003d00c75ddd00f907b200aa
:100620008980750008007800000006000bf827009c
:100630008b007800000005000004be0016000700d3
:100640000003be000405be000200be001200070049
:10065000844f7500000006000200be006450e100f7
:10066000050036006420e100020036000968a3009e
:1006700001003a000800be000160a0004f067800ab
:100680004f05be004f04be0000000600f0ff2f0023
:10069000f1ff2700f9ff3700c70ade00f107b200bb
:1006a000f50fb20008003200e1cf42000200320034
:1006b0000170a00024000500810f700001003200cd
:1006c0000408050044000500810f700002003a0094
:1006d000140005008502e9000000400081c04800c8
:0c06e000fcff3b000170a000240005009e
:020000040000fa
:1006ec000400fa00004f7800114798002247980048
:1006fc00900307002e4190009e4090001e40780011
:10070c00bb0307008f0307000080fa0000000600ff
:10071c000400fa0020479800314798008503070031
:10072c00be4090002e4090008a030700004f7800d6
:10073c00840307001e4078000080fa0000000600c9
:10074c000a00fa004047980031079800024f9800c1
:10075c00134f98000040eb00004f78000000eb00b6
:10076c00100798003200370010c0b300004f78001b
:10077c00ef0107001e4f60004e409000e902070099
:10078c001e4f60000e4890000074a000e5020700a8
:10079c001e4f6000040207001e4f60004e40900088
:1007ac000040e800df0207001e4f60000000eb0075
:1007bc001007980014003700be0090001e00900037
:1007cc00008040008c0207001e4f60001e48900005
:1007dc000080fb000000e900800078001e00900003
:1007ec00808f500003003a00540207001e4f600037
:1007fc0002003700220207001e4f60001e0090000e
:10080c000000e800100798001e4890008080fb0054
:10081c001e009000808f5000e7ff3e000002070092
:10082c001e4078000004e00005003a008f0107002c
:10083c001e4078000004e000cbff320001003700be
:10084c00000000001e4078000080fa000000060046
:10085c000000fa0037030700f2c9b30001c2b3006d
:10086c00c0c3b3006203070002c5b30051c2b3009a
:10087c00c0c3b3005e030700f2ccb30001c2b300e7
:10088c0040cdb3005a03070002c2b30011c2b3003b
:10089c0040cdb300560307000041eb0031c2b3005a
:1008ac0040cdb30052030700260307000080fa0076
:1008bc00000006000200fa00000f78001d0307007c
:1008cc0063c0b30082c2b3009e007800c0c3b30003
:1008dc009bff07001b0307000080fa0000000600c6
:1008ec000c00fa0030079800410798005207980056
:1008fc001003070063c0b30082c2b3008e007800ff
:10090c00c0c3b3008eff07000e0307001e4090000b
:10091c000080fb00c800dd001e4078000080fb005a
:10092c00808040003e009000010878003e4090001e
:10093c000080fb00c800dd002e4090000080fb0012
:10094c00808040004e009000010878005e409000ce
:10095c000080fb00c800dd004e4090000080fb00d2
:10096c00808040005e009000010878000080fa0052
:10097c00000006000200fa00ee0207000e007800ec
:10098c0023c0b30082c2b30080007800c0c3b300a0
:10099c006bff0700eb0207001e4090000000fb00fd
:1009ac00c800dd001e4078000000fb000080400005
:1009bc000080fa00000006000200fa00dd020700c9
:1009cc000e00780023c0b300a2c2b30080007800f0
:1009dc00c0c3b3005aff0700da0207001e409000a4
:1009ec000000fb00c800dd001e4078000000fb008a
:1009fc00008040000080fa00000006000200fa00af
:100a0c00cc0207000e00780023c0b300c2c2b300b2
:100a1c0080007800c0c3b30049ff0700c90207007b
:100a2c001e4090000000fb00c800dd001e40780056
:100a3c000000fb00008040000080fa00000006006f
:100a4c000200fa00000f7800ba02070063c0b3007e
:100a5c0082c2b3009e00780040cdb30038ff07007f
:100a6c00b80207000080fa00000006000c00fa0033
:100a7c00300798004107980052079800ad02070014
:100a8c0063c0b30082c2b3008e00780040cdb300c7
:100a9c002bff0700ab0207001e4090000080fb00fc
:100aac00c800dd001e4078000080fb008080400004
:100abc0000408000808050003e00900001087800cb
:100acc003e4090000080fb00c800dd002e409000ee
:100adc000080fb008080400010408000808050002f
:100aec004e009000010878005e4090000080fb00f2
:100afc00c800dd004e4090000080fb00808040006c
:100b0c0020408000808050005e009000010878003a
:100b1c000080fa00000006000200fa0085020700bf
:100b2c000e00780023c0b30082c2b30080007800ae
:100b3c0040cdb30002ff0700820207001e40900068
:100b4c000000fb00c800dd001e4078000000fb0028
:100b5c008080400000408000008050000080fa003f
:100b6c00000006000200fa00720207000e00780076
:100b7c0023c0b300a2c2b3008000780040cdb30004
:100b8c00effe07006f0207001e4090000000fb0004
:100b9c00c800dd001e4078000000fb008080400093
:100bac0010408000008050000080fa000000060019
:100bbc000200fa005f0207000e00780023c0b300a9
:100bcc00c2c2b3008000780040cdb300dcfe070049
:100bdc005c0207001e4090000000fb00c800dd0016
:100bec001e4078000000fb00808040002040800008
:100bfc00008050000080fa00000006000000fa009f
:100c0c0061c2b30040cdb300c1fe07000080fa0002
:100c1c00000006001000fa00700798000000eb00be
:100c2c00400798000000eb00500798000000eb0014
:100c3c00600798000000eb00000f78000000eb004c
:100c4c00000f78001e0037000e80e8007cff0700c4
:100c5c00ce0090003e4090000080fb004801dd007b
:100c6c002e4090000080fb000000410000804000fe
:100c7c0040079800de0090005e4090000080fb0072
:100c8c004801dd004e4090000080fb000000410058
:100c9c000080400050079800ee0090007e409000cd
:100cac000080fb004801dd006e4090000080fb00de
:100cbc000000410000804000600798001e0fe80013
:100ccc007e0090009e007800808f5000deff350083
:100cdc00ce0090007e009000000178001100090009
:100cec008200d80000408800de0090007e0090005a
:100cfc0000017800110009008200d8001040880023
:100d0c00ee0090007e0090000001780011000900b8
:100d1c008200d800204088000080fa000000060005
:100d2c000200fa00000f78001e007800cf80de0071
:100d3c00a2fd070092c22500f3c02300a2fd07000c
:100d4c000080fa00000006000200fa00000f780094
:100d5c001e007800cf80de0098fd070072cf2c00bb
:100d6c002371230098fd07000080fa0000000600a4
:100d7c000000fa00000000003010800061006000ec
:100d8c000000e000fcff3a003010800064006000be
:100d9c000000e000f8ff3a003010800068006000ae
:100dac000000e000f4ff3a0030108000700060009a
:100dbc000000e000f0ff3a00411080000000240029
:100dcc00008060000000e000ebff3a000080fa00b9
:100ddc00000006000400fa006009200020108800c2
:100dec0007e2a90007e2a80085c0a90085a0a90018
:100dfc00d1048000f08f2f00808060000050200014
:100e0c0001007000d00488008da0a90000712200a0
:100e1c0001002000008fbe00040037000081eb00b1
:100e2c008081eb001e0f41005e9749001e00be0042
:100e3c00e00f5000e08f5800f8ff3a0010c0b300ec
:100e4c000080fa00000006000000fa0007e2a9008a
:100e5c0085c0a90085a0a9008dc0a9008da0a900fe
:100e6c0010c0b3000080fa00000006000400fa0075
:100e7c006000b800008fbe0007e2a90085c0a90081
:100e8c0085a0a9008da0a9000822ef000071220006
:100e9c0001002000008fbe00040037000081eb0031
:100eac008081eb001e0f41005e9749001e00be00c2
:100ebc00e00f5000e08f5800f8ff3a00c5ff070024
:100ecc000f0007000071220001002000008fbe00ff
:100edc00040037000081eb008081eb001e0f410005
:100eec005e9749001e00be00e00f5000e08f5800d6
:100efc00f8ff3a0010c0b3000080fa0000000600b2
:100f0c000000fa0085c0a9008dc0a80010c0b30075
:100f1c000080fa00000006000000fa0085c0a9005d
:100f2c008dc0a90010c0b3000080fa0000000600bc
:100f3c000400fa0010c0b30008e8b70040108000ad
:100f4c00700060000000e000140032000602a800ef
:100f5c000071220001002000008fbe000900370044
:100f6c0008c8bf000004e00002003a0010c0b30043
:100f7c000b0037000081eb008081eb001e0f41005d
:100f8c005e9749001e00be00e00f5000e08f580035
:100f9c00f3ff3a000040eb00010037000040eb008b
:100fac000080fa00000006000400fa0060c0b300e4
:100fbc0008e8b70040108000680060000000e00006
:100fcc00140032000622a80000712200010020004b
:100fdc00008fbe000900370008c8bf000004e00005
:100fec0002003a0010c0b3000b0037000081eb0088
:100ffc008081eb001e0f41005e9749001e00be0071
:10100c00e00f5000e08f5800f3ff3a000040eb0077
:10101c00010037000040eb000080fa0000000600e1
:10102c000400fa0050c0b30008e8b7000642a8005c
:10103c000071220001002000008fbe000900370063
:10104c0008c8bf000004e00002003a0010c0b30062
:10105c00090037000081eb008081eb001e0f41007e
:10106c005e9749001e00be00e00f5000e08f580054
:10107c00f3ff3a000040eb000080fa00000006008d
:10108c000400fa0030c0b30008e8b700301080004c
:10109c00610060000000e00010003a003010800099
:1010ac00640060000000e0000c003a00301080008a
:1010bc00680060000000e00008003a00301080007a
:1010cc00700060000000e00004003a003010800066
:1010dc00620060000000e000020032000040eb0003
:1010ec001400370006a2a9000682a8000071220095
:1010fc0001002000008fbe000900370008c8bf00a7
:10110c000004e00002003a0010c0b30009003700f0
:10111c000081eb008081eb001e0f41005e974900bf
:10112c001e00be00e00f5000e08f5800f3ff3a00a5
:10113c000040eb000080fa00000006000400fa00fa
:10114c0030c0b30008e8b7003010800061006000c8
:10115c000000e00010003a003010800064006000d5
:10116c000000e0000c003a003010800068006000c5
:10117c000000e00008003a003010800070006000b1
:10118c000000e00004003a003010800062006000b3
:10119c000000e000020032000040eb0014003700b9
:1011ac0006a2a8000682a8000071220001002000ff
:1011bc00008fbe000900370008c8bf000004e00023
:1011cc0002003a0010c0b300090037000081eb00a8
:1011dc008081eb001e0f41005e9749001e00be008f
:1011ec00e00f5000e08f5800f3ff3a000040eb0096
:1011fc000080fa00000006000800fa003007980092
:10120c000071220001002000008fbe000040eb00a6
:10121c004047980040c0b30008e8b70000712200b6
:10122c0001002000008fbe001c0037003010800031
:10123c00610060000000e00014003a0030108000f3
:10124c00640060000000e00010003a0030108000e4
:10125c00680060000000e0000c003a0030108000d4
:10126c00700060000000e00008003a0041108000af
:10127c0000002400008060000000e00003003a0041
:10128c0010c0b30040479800080037000081eb0005
:10129c008081eb001e0f41005e9749001e00be00ce
:1012ac00e00f5000e08f5800e0ff3a004e409000f5
:1012bc000004e00002003a000040eb001700370089
:1012cc000662a800006a280011002000008fbe00f2
:1012dc000d00370008c8bf000004e00006003a000b
:1012ec0000108000804078003e009000014878009b
:1012fc0010c0b300090037000081eb008081eb00c7
:10130c001e0f41005e9749001e00be00e00f50000a
:10131c00e08f5800efff3a000040eb000080fa002d
:10132c00000006000600fa004047980020c0b300f9
:10133c0008e8b7004e4090000000fb001010880039
:10134c000071220001002000008fbe000900370050
:10135c0008c8bf000004e00002003a0010c0b3004f
:10136c00090037000081eb008081eb001e0f41006b
:10137c005e9749001e00be00e00f5000e08f580041
:10138c00f3ff3a000040eb000080fa00000006007a
:10139c000200fa005f000700b4fe070065000700ba
:1013ac00f1c0b300c0c3b3006a000700004f78005f
:1013bc006400070000c4b3009e40780080cf50004a
:1013cc0003003a0010c0b30006e8b7000100370074
:1013dc000668ef000080fa00000006000000fa002a
:1013ec00c4c2a900c4e2a900c522a900c582a900f3
:1013fc00c542a900c5a2a900c5c2a900c5e2a900a1
:10140c00c0c2a900c0e2a900c122a900c182a900e2
:10141c00c142a900c1a2a900c1c2a900c1e2a90090
:10142c00d022a900cc22a900d042a900cc42a9000c
:10143c00e2e2a900e302a900e802a900e822a9005f
:10144c00dee2a900df02a900e402a900e422a9005f
:10145c00e202a900de02a900d602a900d622a90048
:10146c00d642a900d662a900d682a900d6a2a900ac
:10147c00d6c2a900d6e2a900d202a900d222a900a4
:10148c00d242a900d262a900d282a900d2a2a9009c
:10149c00d2c2a900d2e2a900d1a2a900cda2a90072
:1014ac00e842a900e862a900e442a900e462a900ac
:1014bc00de22a800dec2a800e4c2a800e4e2a80074
:1014cc00e502a800e522a800d302a800d322a800b8
:1014dc00d342a800d362a800d382a800d3a2a8004c
:1014ec00d3c2a800d3e2a800a9ff070006c8bf001a
:1014fc000004e00001003200d5fc07000080fa0077
:10150c00000006000000fa0006c8bf000080fa00c8
:10151c00000006000000fa002efe07000080fa0012
:10152c00000006000000fa0047fe07000080fa00e9
:10153c00000006000000fa0071fe07000080fa00af
:10154c00000006000000fa0073fe07000080fa009d
:10155c00000006000400fa0020479800314798006c
:10156c000040eb00004f78001900370010c0b300aa
:10157c00004f78006efe07001e4f60002e4090005a
:10158c0068ff07001e4f60003e40900065ff07009b
:10159c001e4f600084fe07001e4f60002e4090001e
:1015ac000040e8005fff07001e4f60000e00e800df
:1015bc0011ff07001e4f6000e0fe070098fe0700b9
:1015cc001e4078000004e00005003a0027fe0700ea
:1015dc001e4078000004e000e4ff320001003700f8
:1015ec00000000001e4090000080fa000000060081
:1015fc000600fa00204798003147980042479800af
:10160c000040eb00004f78001300370010c0b3000f
:10161c00004f780046fe07001e4f60002e409000e1
:10162c0040ff07001e4f60003e4090003dff07004a
:10163c001e4f60004e4090003aff07001e4f6000a6
:10164c0077fe07001e4f60001e4078000004e0008b
:10165c0005003a0005fe07001e4078000004e0007b
:10166c00eaff320001003700000000001e40780045
:10167c000080fa00000006000800fa00200798001d
:10168c00310798006000b800008fbe0005003700dd
:10169c000000000012002000030020001e0f41007b
:1016ac005e9749002e009000be0090001e01be0007
:1016bc00800f5100818f5900f5ff35000080fa0032
:1016cc00000006000200fa0044ff07000000eb00d7
:1016dc00000f78001e00a2001e0078000040780069
:1016ec00614060000080fb00610060004600dd008e
:1016fc0022168000f1fb2f008100610001007000b8
:10170c0020168800003e290041002000daff070067
:04171c00f0ff3700a3
:020000040000fa
:1017200006080000020000000000000000080000a1
:1017300006000000000000000a080000060000008b
:101740000000000008080000020000000000000087
:041750000000000095
:020000040000fa
:0200000401f009
:04000000e0b9000063
:020000040000fa
:0200000401f009
:04000400ff7f00007a
:020000040000fa
:0200000401f009
:040008007fff000076
:020000040000fa
:0200000401f009
:04001400ffff0000ea
:00000001FF
